{
  "contractName": "Postman",
  "abi": [
    {
      "inputs": [],
      "stateMutability": "nonpayable",
      "type": "constructor"
    },
    {
      "inputs": [],
      "name": "count",
      "outputs": [
        {
          "internalType": "uint256",
          "name": "",
          "type": "uint256"
        }
      ],
      "stateMutability": "view",
      "type": "function",
      "constant": true
    },
    {
      "inputs": [],
      "name": "myMessage",
      "outputs": [
        {
          "internalType": "string",
          "name": "",
          "type": "string"
        }
      ],
      "stateMutability": "view",
      "type": "function",
      "constant": true
    },
    {
      "inputs": [],
      "name": "ownerAddress",
      "outputs": [
        {
          "internalType": "address",
          "name": "",
          "type": "address"
        }
      ],
      "stateMutability": "view",
      "type": "function",
      "constant": true
    },
    {
      "inputs": [
        {
          "internalType": "string",
          "name": "_newMessage",
          "type": "string"
        }
      ],
      "name": "updateMessage",
      "outputs": [],
      "stateMutability": "nonpayable",
      "type": "function"
    }
  ],
  "bytecode": "0x60806040526040518060400160405280600781526020017f556e636861696e00000000000000000000000000000000000000000000000000815250600090816200004a91906200031f565b5060006002553480156200005d57600080fd5b5033600160006101000a81548173ffffffffffffffffffffffffffffffffffffffff021916908373ffffffffffffffffffffffffffffffffffffffff16021790555062000406565b600081519050919050565b7f4e487b7100000000000000000000000000000000000000000000000000000000600052604160045260246000fd5b7f4e487b7100000000000000000000000000000000000000000000000000000000600052602260045260246000fd5b600060028204905060018216806200012757607f821691505b6020821081036200013d576200013c620000df565b5b50919050565b60008190508160005260206000209050919050565b60006020601f8301049050919050565b600082821b905092915050565b600060088302620001a77fffffffffffffffffffffffffffffffffffffffffffffffffffffffffffffffff8262000168565b620001b3868362000168565b95508019841693508086168417925050509392505050565b6000819050919050565b6000819050919050565b600062000200620001fa620001f484620001cb565b620001d5565b620001cb565b9050919050565b6000819050919050565b6200021c83620001df565b620002346200022b8262000207565b84845462000175565b825550505050565b600090565b6200024b6200023c565b6200025881848462000211565b505050565b5b8181101562000280576200027460008262000241565b6001810190506200025e565b5050565b601f821115620002cf57620002998162000143565b620002a48462000158565b81016020851015620002b4578190505b620002cc620002c38562000158565b8301826200025d565b50505b505050565b600082821c905092915050565b6000620002f460001984600802620002d4565b1980831691505092915050565b60006200030f8383620002e1565b9150826002028217905092915050565b6200032a82620000a5565b67ffffffffffffffff811115620003465762000345620000b0565b5b6200035282546200010e565b6200035f82828562000284565b600060209050601f83116001811462000397576000841562000382578287015190505b6200038e858262000301565b865550620003fe565b601f198416620003a78662000143565b60005b82811015620003d157848901518255600182019150602085019450602081019050620003aa565b86831015620003f15784890151620003ed601f891682620002e1565b8355505b6001600288020188555050505b505050505050565b61086180620004166000396000f3fe608060405234801561001057600080fd5b506004361061004c5760003560e01c806306661abd146100515780631923be241461006f5780631b008a9f1461008b5780638f84aa09146100a9575b600080fd5b6100596100c7565b604051610066919061021b565b60405180910390f35b61008960048036038101906100849190610390565b6100cd565b005b61009361014e565b6040516100a09190610458565b60405180910390f35b6100b16101dc565b6040516100be91906104bb565b60405180910390f35b60025481565b3373ffffffffffffffffffffffffffffffffffffffff16600160009054906101000a900473ffffffffffffffffffffffffffffffffffffffff1673ffffffffffffffffffffffffffffffffffffffff160361014b57806000908161013191906106e2565b5060026000815480929190610145906107e3565b91905055505b50565b6000805461015b90610505565b80601f016020809104026020016040519081016040528092919081815260200182805461018790610505565b80156101d45780601f106101a9576101008083540402835291602001916101d4565b820191906000526020600020905b8154815290600101906020018083116101b757829003601f168201915b505050505081565b600160009054906101000a900473ffffffffffffffffffffffffffffffffffffffff1681565b6000819050919050565b61021581610202565b82525050565b6000602082019050610230600083018461020c565b92915050565b6000604051905090565b600080fd5b600080fd5b600080fd5b600080fd5b6000601f19601f8301169050919050565b7f4e487b7100000000000000000000000000000000000000000000000000000000600052604160045260246000fd5b61029d82610254565b810181811067ffffffffffffffff821117156102bc576102bb610265565b5b80604052505050565b60006102cf610236565b90506102db8282610294565b919050565b600067ffffffffffffffff8211156102fb576102fa610265565b5b61030482610254565b9050602081019050919050565b82818337600083830152505050565b600061033361032e846102e0565b6102c5565b90508281526020810184848401111561034f5761034e61024f565b5b61035a848285610311565b509392505050565b600082601f8301126103775761037661024a565b5b8135610387848260208601610320565b91505092915050565b6000602082840312156103a6576103a5610240565b5b600082013567ffffffffffffffff8111156103c4576103c3610245565b5b6103d084828501610362565b91505092915050565b600081519050919050565b600082825260208201905092915050565b60005b838110156104135780820151818401526020810190506103f8565b60008484015250505050565b600061042a826103d9565b61043481856103e4565b93506104448185602086016103f5565b61044d81610254565b840191505092915050565b60006020820190508181036000830152610472818461041f565b905092915050565b600073ffffffffffffffffffffffffffffffffffffffff82169050919050565b60006104a58261047a565b9050919050565b6104b58161049a565b82525050565b60006020820190506104d060008301846104ac565b92915050565b7f4e487b7100000000000000000000000000000000000000000000000000000000600052602260045260246000fd5b6000600282049050600182168061051d57607f821691505b6020821081036105305761052f6104d6565b5b50919050565b60008190508160005260206000209050919050565b60006020601f8301049050919050565b600082821b905092915050565b6000600883026105987fffffffffffffffffffffffffffffffffffffffffffffffffffffffffffffffff8261055b565b6105a2868361055b565b95508019841693508086168417925050509392505050565b6000819050919050565b60006105df6105da6105d584610202565b6105ba565b610202565b9050919050565b6000819050919050565b6105f9836105c4565b61060d610605826105e6565b848454610568565b825550505050565b600090565b610622610615565b61062d8184846105f0565b505050565b5b818110156106515761064660008261061a565b600181019050610633565b5050565b601f8211156106965761066781610536565b6106708461054b565b8101602085101561067f578190505b61069361068b8561054b565b830182610632565b50505b505050565b600082821c905092915050565b60006106b96000198460080261069b565b1980831691505092915050565b60006106d283836106a8565b9150826002028217905092915050565b6106eb826103d9565b67ffffffffffffffff81111561070457610703610265565b5b61070e8254610505565b610719828285610655565b600060209050601f83116001811461074c576000841561073a578287015190505b61074485826106c6565b8655506107ac565b601f19841661075a86610536565b60005b828110156107825784890151825560018201915060208501945060208101905061075d565b8683101561079f578489015161079b601f8916826106a8565b8355505b6001600288020188555050505b505050505050565b7f4e487b7100000000000000000000000000000000000000000000000000000000600052601160045260246000fd5b60006107ee82610202565b91507fffffffffffffffffffffffffffffffffffffffffffffffffffffffffffffffff82036108205761081f6107b4565b5b60018201905091905056fea2646970667358221220b808d27816148aebcdd69923631a4b33f0bd6b90ad95f835366b3e9c86a0084c64736f6c63430008100033",
  "immutableReferences": {},
  "source": "//SPDX-License-Identifier:MIT\r\n//Smart Contract1\r\n//1.only owner of contract can modify the message,use(msg.sender)\r\n\r\n//2.count the number of updates to message,\r\n//3.everyone can see the updated message\r\npragma solidity ^0.8.7;\r\ncontract Postman{\r\n    string public myMessage =\"Unchain\";\r\n    address public ownerAddress;\r\n    uint public count=0;\r\n\r\n    constructor(){\r\n        ownerAddress=msg.sender;\r\n    }\r\n    \r\n    function updateMessage(string memory _newMessage) public  {\r\n        if(ownerAddress==msg.sender){\r\n         myMessage=_newMessage;\r\n         count++;\r\n         }\r\n    }\r\n    \r\n  \r\n}",
  "sourcePath": "C:\\Users\\kajal\\DemoProject1\\contracts\\postman.sol",
  "compiler": {
    "name": "solc",
    "version": "0.8.16+commit.07a7930e.Emscripten.clang"
  },
  "schemaVersion": "3.4.9",
  "updatedAt": "2022-10-14T14:41:28.609Z",
  "networkType": "ethereum",
  "devdoc": {
    "kind": "dev",
    "methods": {},
    "version": 1
  },
  "userdoc": {
    "kind": "user",
    "methods": {},
    "version": 1
  }
}